{
  "_format": "hh-sol-artifact-1",
  "contractName": "ERC721_Price",
  "sourceName": "contracts/ERC721_Price.sol",
  "abi": [
    {
      "inputs": [],
      "stateMutability": "nonpayable",
      "type": "constructor"
    },
    {
      "anonymous": false,
      "inputs": [
        {
          "indexed": true,
          "internalType": "address",
          "name": "owner",
          "type": "address"
        },
        {
          "indexed": true,
          "internalType": "address",
          "name": "approved",
          "type": "address"
        },
        {
          "indexed": true,
          "internalType": "uint256",
          "name": "tokenId",
          "type": "uint256"
        }
      ],
      "name": "Approval",
      "type": "event"
    },
    {
      "anonymous": false,
      "inputs": [
        {
          "indexed": true,
          "internalType": "address",
          "name": "owner",
          "type": "address"
        },
        {
          "indexed": true,
          "internalType": "address",
          "name": "operator",
          "type": "address"
        },
        {
          "indexed": false,
          "internalType": "bool",
          "name": "approved",
          "type": "bool"
        }
      ],
      "name": "ApprovalForAll",
      "type": "event"
    },
    {
      "anonymous": false,
      "inputs": [
        {
          "indexed": true,
          "internalType": "address",
          "name": "previousOwner",
          "type": "address"
        },
        {
          "indexed": true,
          "internalType": "address",
          "name": "newOwner",
          "type": "address"
        }
      ],
      "name": "OwnershipTransferred",
      "type": "event"
    },
    {
      "anonymous": false,
      "inputs": [
        {
          "indexed": true,
          "internalType": "address",
          "name": "from",
          "type": "address"
        },
        {
          "indexed": true,
          "internalType": "address",
          "name": "to",
          "type": "address"
        },
        {
          "indexed": true,
          "internalType": "uint256",
          "name": "tokenId",
          "type": "uint256"
        }
      ],
      "name": "Transfer",
      "type": "event"
    },
    {
      "inputs": [],
      "name": "MAX_TOKENS",
      "outputs": [
        {
          "internalType": "uint256",
          "name": "",
          "type": "uint256"
        }
      ],
      "stateMutability": "view",
      "type": "function"
    },
    {
      "inputs": [],
      "name": "MAX_TOKENS_PER_ADDRESS",
      "outputs": [
        {
          "internalType": "uint256",
          "name": "",
          "type": "uint256"
        }
      ],
      "stateMutability": "view",
      "type": "function"
    },
    {
      "inputs": [],
      "name": "PRICE",
      "outputs": [
        {
          "internalType": "uint256",
          "name": "",
          "type": "uint256"
        }
      ],
      "stateMutability": "view",
      "type": "function"
    },
    {
      "inputs": [
        {
          "internalType": "address",
          "name": "to",
          "type": "address"
        },
        {
          "internalType": "uint256",
          "name": "tokenId",
          "type": "uint256"
        }
      ],
      "name": "approve",
      "outputs": [],
      "stateMutability": "nonpayable",
      "type": "function"
    },
    {
      "inputs": [
        {
          "internalType": "address",
          "name": "owner",
          "type": "address"
        }
      ],
      "name": "balanceOf",
      "outputs": [
        {
          "internalType": "uint256",
          "name": "",
          "type": "uint256"
        }
      ],
      "stateMutability": "view",
      "type": "function"
    },
    {
      "inputs": [
        {
          "internalType": "uint256",
          "name": "tokenId",
          "type": "uint256"
        }
      ],
      "name": "getApproved",
      "outputs": [
        {
          "internalType": "address",
          "name": "",
          "type": "address"
        }
      ],
      "stateMutability": "view",
      "type": "function"
    },
    {
      "inputs": [
        {
          "internalType": "address",
          "name": "owner",
          "type": "address"
        },
        {
          "internalType": "address",
          "name": "operator",
          "type": "address"
        }
      ],
      "name": "isApprovedForAll",
      "outputs": [
        {
          "internalType": "bool",
          "name": "",
          "type": "bool"
        }
      ],
      "stateMutability": "view",
      "type": "function"
    },
    {
      "inputs": [
        {
          "internalType": "uint256",
          "name": "amount",
          "type": "uint256"
        }
      ],
      "name": "mint",
      "outputs": [],
      "stateMutability": "payable",
      "type": "function"
    },
    {
      "inputs": [],
      "name": "name",
      "outputs": [
        {
          "internalType": "string",
          "name": "",
          "type": "string"
        }
      ],
      "stateMutability": "view",
      "type": "function"
    },
    {
      "inputs": [],
      "name": "owner",
      "outputs": [
        {
          "internalType": "address",
          "name": "",
          "type": "address"
        }
      ],
      "stateMutability": "view",
      "type": "function"
    },
    {
      "inputs": [
        {
          "internalType": "uint256",
          "name": "tokenId",
          "type": "uint256"
        }
      ],
      "name": "ownerOf",
      "outputs": [
        {
          "internalType": "address",
          "name": "",
          "type": "address"
        }
      ],
      "stateMutability": "view",
      "type": "function"
    },
    {
      "inputs": [],
      "name": "renounceOwnership",
      "outputs": [],
      "stateMutability": "nonpayable",
      "type": "function"
    },
    {
      "inputs": [
        {
          "internalType": "address",
          "name": "from",
          "type": "address"
        },
        {
          "internalType": "address",
          "name": "to",
          "type": "address"
        },
        {
          "internalType": "uint256",
          "name": "tokenId",
          "type": "uint256"
        }
      ],
      "name": "safeTransferFrom",
      "outputs": [],
      "stateMutability": "nonpayable",
      "type": "function"
    },
    {
      "inputs": [
        {
          "internalType": "address",
          "name": "from",
          "type": "address"
        },
        {
          "internalType": "address",
          "name": "to",
          "type": "address"
        },
        {
          "internalType": "uint256",
          "name": "tokenId",
          "type": "uint256"
        },
        {
          "internalType": "bytes",
          "name": "data",
          "type": "bytes"
        }
      ],
      "name": "safeTransferFrom",
      "outputs": [],
      "stateMutability": "nonpayable",
      "type": "function"
    },
    {
      "inputs": [
        {
          "internalType": "address",
          "name": "operator",
          "type": "address"
        },
        {
          "internalType": "bool",
          "name": "approved",
          "type": "bool"
        }
      ],
      "name": "setApprovalForAll",
      "outputs": [],
      "stateMutability": "nonpayable",
      "type": "function"
    },
    {
      "inputs": [
        {
          "internalType": "string",
          "name": "URI",
          "type": "string"
        }
      ],
      "name": "setBaseURI",
      "outputs": [],
      "stateMutability": "nonpayable",
      "type": "function"
    },
    {
      "inputs": [
        {
          "internalType": "string",
          "name": "URI",
          "type": "string"
        }
      ],
      "name": "setRevealedBaseURI",
      "outputs": [],
      "stateMutability": "nonpayable",
      "type": "function"
    },
    {
      "inputs": [
        {
          "internalType": "bytes4",
          "name": "interfaceId",
          "type": "bytes4"
        }
      ],
      "name": "supportsInterface",
      "outputs": [
        {
          "internalType": "bool",
          "name": "",
          "type": "bool"
        }
      ],
      "stateMutability": "view",
      "type": "function"
    },
    {
      "inputs": [],
      "name": "symbol",
      "outputs": [
        {
          "internalType": "string",
          "name": "",
          "type": "string"
        }
      ],
      "stateMutability": "view",
      "type": "function"
    },
    {
      "inputs": [
        {
          "internalType": "uint256",
          "name": "tokenId",
          "type": "uint256"
        }
      ],
      "name": "tokenURI",
      "outputs": [
        {
          "internalType": "string",
          "name": "",
          "type": "string"
        }
      ],
      "stateMutability": "view",
      "type": "function"
    },
    {
      "inputs": [],
      "name": "totalSupply",
      "outputs": [
        {
          "internalType": "uint256",
          "name": "",
          "type": "uint256"
        }
      ],
      "stateMutability": "view",
      "type": "function"
    },
    {
      "inputs": [
        {
          "internalType": "address",
          "name": "from",
          "type": "address"
        },
        {
          "internalType": "address",
          "name": "to",
          "type": "address"
        },
        {
          "internalType": "uint256",
          "name": "tokenId",
          "type": "uint256"
        }
      ],
      "name": "transferFrom",
      "outputs": [],
      "stateMutability": "nonpayable",
      "type": "function"
    },
    {
      "inputs": [
        {
          "internalType": "address",
          "name": "newOwner",
          "type": "address"
        }
      ],
      "name": "transferOwnership",
      "outputs": [],
      "stateMutability": "nonpayable",
      "type": "function"
    },
    {
      "inputs": [],
      "name": "withdraw",
      "outputs": [],
      "stateMutability": "nonpayable",
      "type": "function"
    }
  ],
  "bytecode": "0x60806040523480156200001157600080fd5b506040518060400160405280600481526020017f54657374000000000000000000000000000000000000000000000000000000008152506040518060400160405280600381526020017f5453540000000000000000000000000000000000000000000000000000000000815250816000908051906020019062000096929190620001a6565b508060019080519060200190620000af929190620001a6565b505050620000d2620000c6620000d860201b60201c565b620000e060201b60201c565b620002bb565b600033905090565b6000600660009054906101000a900473ffffffffffffffffffffffffffffffffffffffff16905081600660006101000a81548173ffffffffffffffffffffffffffffffffffffffff021916908373ffffffffffffffffffffffffffffffffffffffff1602179055508173ffffffffffffffffffffffffffffffffffffffff168173ffffffffffffffffffffffffffffffffffffffff167f8be0079c531659141344cd1fd0a4f28419497f9722a3daafe3b4186f6b6457e060405160405180910390a35050565b828054620001b49062000285565b90600052602060002090601f016020900481019282620001d8576000855562000224565b82601f10620001f357805160ff191683800117855562000224565b8280016001018555821562000224579182015b828111156200022357825182559160200191906001019062000206565b5b50905062000233919062000237565b5090565b5b808211156200025257600081600090555060010162000238565b5090565b7f4e487b7100000000000000000000000000000000000000000000000000000000600052602260045260246000fd5b600060028204905060018216806200029e57607f821691505b60208210811415620002b557620002b462000256565b5b50919050565b61311a80620002cb6000396000f3fe60806040526004361061014b5760003560e01c806370a08231116100b6578063a22cb4651161006f578063a22cb4651461045d578063b88d4fde14610486578063c87b56dd146104af578063e985e9c5146104ec578063f2fde38b14610529578063f47c84c5146105525761014b565b806370a082311461036c578063715018a6146103a95780638d859f3e146103c05780638da5cb5b146103eb57806395d89b4114610416578063a0712d68146104415761014b565b80633ccfd60b116101085780633ccfd60b1461027257806342842e0e1461028957806355f804b3146102b25780636352211e146102db57806365407358146103185780636e83843a146103435761014b565b806301ffc9a71461015057806306fdde031461018d578063081812fc146101b8578063095ea7b3146101f557806318160ddd1461021e57806323b872dd14610249575b600080fd5b34801561015c57600080fd5b5061017760048036038101906101729190611ec4565b61057d565b6040516101849190611f0c565b60405180910390f35b34801561019957600080fd5b506101a261065f565b6040516101af9190611fc0565b60405180910390f35b3480156101c457600080fd5b506101df60048036038101906101da9190612018565b6106f1565b6040516101ec9190612086565b60405180910390f35b34801561020157600080fd5b5061021c600480360381019061021791906120cd565b610737565b005b34801561022a57600080fd5b5061023361084f565b604051610240919061211c565b60405180910390f35b34801561025557600080fd5b50610270600480360381019061026b9190612137565b610860565b005b34801561027e57600080fd5b506102876108c0565b005b34801561029557600080fd5b506102b060048036038101906102ab9190612137565b610911565b005b3480156102be57600080fd5b506102d960048036038101906102d491906121ef565b610931565b005b3480156102e757600080fd5b5061030260048036038101906102fd9190612018565b61094f565b60405161030f9190612086565b60405180910390f35b34801561032457600080fd5b5061032d610a01565b60405161033a919061211c565b60405180910390f35b34801561034f57600080fd5b5061036a600480360381019061036591906121ef565b610a06565b005b34801561037857600080fd5b50610393600480360381019061038e919061223c565b610a24565b6040516103a0919061211c565b60405180910390f35b3480156103b557600080fd5b506103be610adc565b005b3480156103cc57600080fd5b506103d5610af0565b6040516103e2919061211c565b60405180910390f35b3480156103f757600080fd5b50610400610afb565b60405161040d9190612086565b60405180910390f35b34801561042257600080fd5b5061042b610b25565b6040516104389190611fc0565b60405180910390f35b61045b60048036038101906104569190612018565b610bb7565b005b34801561046957600080fd5b50610484600480360381019061047f9190612295565b610cf3565b005b34801561049257600080fd5b506104ad60048036038101906104a89190612405565b610d09565b005b3480156104bb57600080fd5b506104d660048036038101906104d19190612018565b610d6b565b6040516104e39190611fc0565b60405180910390f35b3480156104f857600080fd5b50610513600480360381019061050e9190612488565b610f10565b6040516105209190611f0c565b60405180910390f35b34801561053557600080fd5b50610550600480360381019061054b919061223c565b610fa4565b005b34801561055e57600080fd5b50610567611028565b604051610574919061211c565b60405180910390f35b60007f80ac58cd000000000000000000000000000000000000000000000000000000007bffffffffffffffffffffffffffffffffffffffffffffffffffffffff1916827bffffffffffffffffffffffffffffffffffffffffffffffffffffffff1916148061064857507f5b5e139f000000000000000000000000000000000000000000000000000000007bffffffffffffffffffffffffffffffffffffffffffffffffffffffff1916827bffffffffffffffffffffffffffffffffffffffffffffffffffffffff1916145b8061065857506106578261102e565b5b9050919050565b60606000805461066e906124f7565b80601f016020809104026020016040519081016040528092919081815260200182805461069a906124f7565b80156106e75780601f106106bc576101008083540402835291602001916106e7565b820191906000526020600020905b8154815290600101906020018083116106ca57829003601f168201915b5050505050905090565b60006106fc82611098565b6004600083815260200190815260200160002060009054906101000a900473ffffffffffffffffffffffffffffffffffffffff169050919050565b60006107428261094f565b90508073ffffffffffffffffffffffffffffffffffffffff168373ffffffffffffffffffffffffffffffffffffffff1614156107b3576040517f08c379a00000000000000000000000000000000000000000000000000000000081526004016107aa9061259b565b60405180910390fd5b8073ffffffffffffffffffffffffffffffffffffffff166107d26110e3565b73ffffffffffffffffffffffffffffffffffffffff1614806108015750610800816107fb6110e3565b610f10565b5b610840576040517f08c379a00000000000000000000000000000000000000000000000000000000081526004016108379061262d565b60405180910390fd5b61084a83836110eb565b505050565b600061085b60076111a4565b905090565b61087161086b6110e3565b826111b2565b6108b0576040517f08c379a00000000000000000000000000000000000000000000000000000000081526004016108a7906126bf565b60405180910390fd5b6108bb838383611247565b505050565b6108c86114ae565b3373ffffffffffffffffffffffffffffffffffffffff166108fc479081150290604051600060405180830381858888f1935050505015801561090e573d6000803e3d6000fd5b50565b61092c83838360405180602001604052806000815250610d09565b505050565b6109396114ae565b81816008919061094a929190611db5565b505050565b6000806002600084815260200190815260200160002060009054906101000a900473ffffffffffffffffffffffffffffffffffffffff169050600073ffffffffffffffffffffffffffffffffffffffff168173ffffffffffffffffffffffffffffffffffffffff1614156109f8576040517f08c379a00000000000000000000000000000000000000000000000000000000081526004016109ef9061272b565b60405180910390fd5b80915050919050565b606481565b610a0e6114ae565b818160099190610a1f929190611db5565b505050565b60008073ffffffffffffffffffffffffffffffffffffffff168273ffffffffffffffffffffffffffffffffffffffff161415610a95576040517f08c379a0000000000000000000000000000000000000000000000000000000008152600401610a8c906127bd565b60405180910390fd5b600360008373ffffffffffffffffffffffffffffffffffffffff1673ffffffffffffffffffffffffffffffffffffffff168152602001908152602001600020549050919050565b610ae46114ae565b610aee600061152c565b565b66b1a2bc2ec5000081565b6000600660009054906101000a900473ffffffffffffffffffffffffffffffffffffffff16905090565b606060018054610b34906124f7565b80601f0160208091040260200160405190810160405280929190818152602001828054610b60906124f7565b8015610bad5780601f10610b8257610100808354040283529160200191610bad565b820191906000526020600020905b815481529060010190602001808311610b9057829003601f168201915b5050505050905090565b606481610bc333610a24565b610bcd919061280c565b1115610c0e576040517f08c379a0000000000000000000000000000000000000000000000000000000008152600401610c05906128ae565b60405180910390fd5b61271081610c1c60076111a4565b610c26919061280c565b1115610c67576040517f08c379a0000000000000000000000000000000000000000000000000000000008152600401610c5e9061291a565b60405180910390fd5b66b1a2bc2ec5000081610c7a919061293a565b341015610cbc576040517f08c379a0000000000000000000000000000000000000000000000000000000008152600401610cb3906129e0565b60405180910390fd5b60005b81811015610cef57610cda33610cd560076111a4565b6115f2565b610ce46007611610565b806001019050610cbf565b5050565b610d05610cfe6110e3565b8383611626565b5050565b610d1a610d146110e3565b836111b2565b610d59576040517f08c379a0000000000000000000000000000000000000000000000000000000008152600401610d50906126bf565b60405180910390fd5b610d6584848484611793565b50505050565b6060610d76826117ef565b610db5576040517f08c379a0000000000000000000000000000000000000000000000000000000008152600401610dac90612a4c565b60405180910390fd5b600060098054610dc4906124f7565b80601f0160208091040260200160405190810160405280929190818152602001828054610df0906124f7565b8015610e3d5780601f10610e1257610100808354040283529160200191610e3d565b820191906000526020600020905b815481529060010190602001808311610e2057829003601f168201915b505050505090506000815111610edd5760088054610e5a906124f7565b80601f0160208091040260200160405190810160405280929190818152602001828054610e86906124f7565b8015610ed35780601f10610ea857610100808354040283529160200191610ed3565b820191906000526020600020905b815481529060010190602001808311610eb657829003601f168201915b5050505050610f08565b80610ee78461185b565b604051602001610ef8929190612aa8565b6040516020818303038152906040525b915050919050565b6000600560008473ffffffffffffffffffffffffffffffffffffffff1673ffffffffffffffffffffffffffffffffffffffff16815260200190815260200160002060008373ffffffffffffffffffffffffffffffffffffffff1673ffffffffffffffffffffffffffffffffffffffff16815260200190815260200160002060009054906101000a900460ff16905092915050565b610fac6114ae565b600073ffffffffffffffffffffffffffffffffffffffff168173ffffffffffffffffffffffffffffffffffffffff16141561101c576040517f08c379a000000000000000000000000000000000000000000000000000000000815260040161101390612b3e565b60405180910390fd5b6110258161152c565b50565b61271081565b60007f01ffc9a7000000000000000000000000000000000000000000000000000000007bffffffffffffffffffffffffffffffffffffffffffffffffffffffff1916827bffffffffffffffffffffffffffffffffffffffffffffffffffffffff1916149050919050565b6110a1816117ef565b6110e0576040517f08c379a00000000000000000000000000000000000000000000000000000000081526004016110d79061272b565b60405180910390fd5b50565b600033905090565b816004600083815260200190815260200160002060006101000a81548173ffffffffffffffffffffffffffffffffffffffff021916908373ffffffffffffffffffffffffffffffffffffffff160217905550808273ffffffffffffffffffffffffffffffffffffffff1661115e8361094f565b73ffffffffffffffffffffffffffffffffffffffff167f8c5be1e5ebec7d5bd14f71427d1e84f3dd0314c0f7b2291e5b200ac8c7c3b92560405160405180910390a45050565b600081600001549050919050565b6000806111be8361094f565b90508073ffffffffffffffffffffffffffffffffffffffff168473ffffffffffffffffffffffffffffffffffffffff16148061120057506111ff8185610f10565b5b8061123e57508373ffffffffffffffffffffffffffffffffffffffff16611226846106f1565b73ffffffffffffffffffffffffffffffffffffffff16145b91505092915050565b8273ffffffffffffffffffffffffffffffffffffffff166112678261094f565b73ffffffffffffffffffffffffffffffffffffffff16146112bd576040517f08c379a00000000000000000000000000000000000000000000000000000000081526004016112b490612bd0565b60405180910390fd5b600073ffffffffffffffffffffffffffffffffffffffff168273ffffffffffffffffffffffffffffffffffffffff16141561132d576040517f08c379a000000000000000000000000000000000000000000000000000000000815260040161132490612c62565b60405180910390fd5b6113388383836119bc565b6113436000826110eb565b6001600360008573ffffffffffffffffffffffffffffffffffffffff1673ffffffffffffffffffffffffffffffffffffffff16815260200190815260200160002060008282546113939190612c82565b925050819055506001600360008473ffffffffffffffffffffffffffffffffffffffff1673ffffffffffffffffffffffffffffffffffffffff16815260200190815260200160002060008282546113ea919061280c565b92505081905550816002600083815260200190815260200160002060006101000a81548173ffffffffffffffffffffffffffffffffffffffff021916908373ffffffffffffffffffffffffffffffffffffffff160217905550808273ffffffffffffffffffffffffffffffffffffffff168473ffffffffffffffffffffffffffffffffffffffff167fddf252ad1be2c89b69c2b068fc378daa952ba7f163c4a11628f55a4df523b3ef60405160405180910390a46114a98383836119c1565b505050565b6114b66110e3565b73ffffffffffffffffffffffffffffffffffffffff166114d4610afb565b73ffffffffffffffffffffffffffffffffffffffff161461152a576040517f08c379a000000000000000000000000000000000000000000000000000000000815260040161152190612d02565b60405180910390fd5b565b6000600660009054906101000a900473ffffffffffffffffffffffffffffffffffffffff16905081600660006101000a81548173ffffffffffffffffffffffffffffffffffffffff021916908373ffffffffffffffffffffffffffffffffffffffff1602179055508173ffffffffffffffffffffffffffffffffffffffff168173ffffffffffffffffffffffffffffffffffffffff167f8be0079c531659141344cd1fd0a4f28419497f9722a3daafe3b4186f6b6457e060405160405180910390a35050565b61160c8282604051806020016040528060008152506119c6565b5050565b6001816000016000828254019250508190555050565b8173ffffffffffffffffffffffffffffffffffffffff168373ffffffffffffffffffffffffffffffffffffffff161415611695576040517f08c379a000000000000000000000000000000000000000000000000000000000815260040161168c90612d6e565b60405180910390fd5b80600560008573ffffffffffffffffffffffffffffffffffffffff1673ffffffffffffffffffffffffffffffffffffffff16815260200190815260200160002060008473ffffffffffffffffffffffffffffffffffffffff1673ffffffffffffffffffffffffffffffffffffffff16815260200190815260200160002060006101000a81548160ff0219169083151502179055508173ffffffffffffffffffffffffffffffffffffffff168373ffffffffffffffffffffffffffffffffffffffff167f17307eab39ab6107e8899845ad3d59bd9653f200f220920489ca2b5937696c31836040516117869190611f0c565b60405180910390a3505050565b61179e848484611247565b6117aa84848484611a21565b6117e9576040517f08c379a00000000000000000000000000000000000000000000000000000000081526004016117e090612e00565b60405180910390fd5b50505050565b60008073ffffffffffffffffffffffffffffffffffffffff166002600084815260200190815260200160002060009054906101000a900473ffffffffffffffffffffffffffffffffffffffff1673ffffffffffffffffffffffffffffffffffffffff1614159050919050565b606060008214156118a3576040518060400160405280600181526020017f300000000000000000000000000000000000000000000000000000000000000081525090506119b7565b600082905060005b600082146118d55780806118be90612e20565b915050600a826118ce9190612e98565b91506118ab565b60008167ffffffffffffffff8111156118f1576118f06122da565b5b6040519080825280601f01601f1916602001820160405280156119235781602001600182028036833780820191505090505b5090505b600085146119b05760018261193c9190612c82565b9150600a8561194b9190612ec9565b6030611957919061280c565b60f81b81838151811061196d5761196c612efa565b5b60200101907effffffffffffffffffffffffffffffffffffffffffffffffffffffffffffff1916908160001a905350600a856119a99190612e98565b9450611927565b8093505050505b919050565b505050565b505050565b6119d08383611bb8565b6119dd6000848484611a21565b611a1c576040517f08c379a0000000000000000000000000000000000000000000000000000000008152600401611a1390612e00565b60405180910390fd5b505050565b6000611a428473ffffffffffffffffffffffffffffffffffffffff16611d92565b15611bab578373ffffffffffffffffffffffffffffffffffffffff1663150b7a02611a6b6110e3565b8786866040518563ffffffff1660e01b8152600401611a8d9493929190612f7e565b602060405180830381600087803b158015611aa757600080fd5b505af1925050508015611ad857506040513d601f19601f82011682018060405250810190611ad59190612fdf565b60015b611b5b573d8060008114611b08576040519150601f19603f3d011682016040523d82523d6000602084013e611b0d565b606091505b50600081511415611b53576040517f08c379a0000000000000000000000000000000000000000000000000000000008152600401611b4a90612e00565b60405180910390fd5b805181602001fd5b63150b7a0260e01b7bffffffffffffffffffffffffffffffffffffffffffffffffffffffff1916817bffffffffffffffffffffffffffffffffffffffffffffffffffffffff191614915050611bb0565b600190505b949350505050565b600073ffffffffffffffffffffffffffffffffffffffff168273ffffffffffffffffffffffffffffffffffffffff161415611c28576040517f08c379a0000000000000000000000000000000000000000000000000000000008152600401611c1f90613058565b60405180910390fd5b611c31816117ef565b15611c71576040517f08c379a0000000000000000000000000000000000000000000000000000000008152600401611c68906130c4565b60405180910390fd5b611c7d600083836119bc565b6001600360008473ffffffffffffffffffffffffffffffffffffffff1673ffffffffffffffffffffffffffffffffffffffff1681526020019081526020016000206000828254611ccd919061280c565b92505081905550816002600083815260200190815260200160002060006101000a81548173ffffffffffffffffffffffffffffffffffffffff021916908373ffffffffffffffffffffffffffffffffffffffff160217905550808273ffffffffffffffffffffffffffffffffffffffff16600073ffffffffffffffffffffffffffffffffffffffff167fddf252ad1be2c89b69c2b068fc378daa952ba7f163c4a11628f55a4df523b3ef60405160405180910390a4611d8e600083836119c1565b5050565b6000808273ffffffffffffffffffffffffffffffffffffffff163b119050919050565b828054611dc1906124f7565b90600052602060002090601f016020900481019282611de35760008555611e2a565b82601f10611dfc57803560ff1916838001178555611e2a565b82800160010185558215611e2a579182015b82811115611e29578235825591602001919060010190611e0e565b5b509050611e379190611e3b565b5090565b5b80821115611e54576000816000905550600101611e3c565b5090565b6000604051905090565b600080fd5b600080fd5b60007fffffffff0000000000000000000000000000000000000000000000000000000082169050919050565b611ea181611e6c565b8114611eac57600080fd5b50565b600081359050611ebe81611e98565b92915050565b600060208284031215611eda57611ed9611e62565b5b6000611ee884828501611eaf565b91505092915050565b60008115159050919050565b611f0681611ef1565b82525050565b6000602082019050611f216000830184611efd565b92915050565b600081519050919050565b600082825260208201905092915050565b60005b83811015611f61578082015181840152602081019050611f46565b83811115611f70576000848401525b50505050565b6000601f19601f8301169050919050565b6000611f9282611f27565b611f9c8185611f32565b9350611fac818560208601611f43565b611fb581611f76565b840191505092915050565b60006020820190508181036000830152611fda8184611f87565b905092915050565b6000819050919050565b611ff581611fe2565b811461200057600080fd5b50565b60008135905061201281611fec565b92915050565b60006020828403121561202e5761202d611e62565b5b600061203c84828501612003565b91505092915050565b600073ffffffffffffffffffffffffffffffffffffffff82169050919050565b600061207082612045565b9050919050565b61208081612065565b82525050565b600060208201905061209b6000830184612077565b92915050565b6120aa81612065565b81146120b557600080fd5b50565b6000813590506120c7816120a1565b92915050565b600080604083850312156120e4576120e3611e62565b5b60006120f2858286016120b8565b925050602061210385828601612003565b9150509250929050565b61211681611fe2565b82525050565b6000602082019050612131600083018461210d565b92915050565b6000806000606084860312156121505761214f611e62565b5b600061215e868287016120b8565b935050602061216f868287016120b8565b925050604061218086828701612003565b9150509250925092565b600080fd5b600080fd5b600080fd5b60008083601f8401126121af576121ae61218a565b5b8235905067ffffffffffffffff8111156121cc576121cb61218f565b5b6020830191508360018202830111156121e8576121e7612194565b5b9250929050565b6000806020838503121561220657612205611e62565b5b600083013567ffffffffffffffff81111561222457612223611e67565b5b61223085828601612199565b92509250509250929050565b60006020828403121561225257612251611e62565b5b6000612260848285016120b8565b91505092915050565b61227281611ef1565b811461227d57600080fd5b50565b60008135905061228f81612269565b92915050565b600080604083850312156122ac576122ab611e62565b5b60006122ba858286016120b8565b92505060206122cb85828601612280565b9150509250929050565b600080fd5b7f4e487b7100000000000000000000000000000000000000000000000000000000600052604160045260246000fd5b61231282611f76565b810181811067ffffffffffffffff82111715612331576123306122da565b5b80604052505050565b6000612344611e58565b90506123508282612309565b919050565b600067ffffffffffffffff8211156123705761236f6122da565b5b61237982611f76565b9050602081019050919050565b82818337600083830152505050565b60006123a86123a384612355565b61233a565b9050828152602081018484840111156123c4576123c36122d5565b5b6123cf848285612386565b509392505050565b600082601f8301126123ec576123eb61218a565b5b81356123fc848260208601612395565b91505092915050565b6000806000806080858703121561241f5761241e611e62565b5b600061242d878288016120b8565b945050602061243e878288016120b8565b935050604061244f87828801612003565b925050606085013567ffffffffffffffff8111156124705761246f611e67565b5b61247c878288016123d7565b91505092959194509250565b6000806040838503121561249f5761249e611e62565b5b60006124ad858286016120b8565b92505060206124be858286016120b8565b9150509250929050565b7f4e487b7100000000000000000000000000000000000000000000000000000000600052602260045260246000fd5b6000600282049050600182168061250f57607f821691505b60208210811415612523576125226124c8565b5b50919050565b7f4552433732313a20617070726f76616c20746f2063757272656e74206f776e6560008201527f7200000000000000000000000000000000000000000000000000000000000000602082015250565b6000612585602183611f32565b915061259082612529565b604082019050919050565b600060208201905081810360008301526125b481612578565b9050919050565b7f4552433732313a20617070726f76652063616c6c6572206973206e6f7420746f60008201527f6b656e206f776e6572206e6f7220617070726f76656420666f7220616c6c0000602082015250565b6000612617603e83611f32565b9150612622826125bb565b604082019050919050565b600060208201905081810360008301526126468161260a565b9050919050565b7f4552433732313a2063616c6c6572206973206e6f7420746f6b656e206f776e6560008201527f72206e6f7220617070726f766564000000000000000000000000000000000000602082015250565b60006126a9602e83611f32565b91506126b48261264d565b604082019050919050565b600060208201905081810360008301526126d88161269c565b9050919050565b7f4552433732313a20696e76616c696420746f6b656e2049440000000000000000600082015250565b6000612715601883611f32565b9150612720826126df565b602082019050919050565b6000602082019050818103600083015261274481612708565b9050919050565b7f4552433732313a2061646472657373207a65726f206973206e6f74206120766160008201527f6c6964206f776e65720000000000000000000000000000000000000000000000602082015250565b60006127a7602983611f32565b91506127b28261274b565b604082019050919050565b600060208201905081810360008301526127d68161279a565b9050919050565b7f4e487b7100000000000000000000000000000000000000000000000000000000600052601160045260246000fd5b600061281782611fe2565b915061282283611fe2565b9250827fffffffffffffffffffffffffffffffffffffffffffffffffffffffffffffffff03821115612857576128566127dd565b5b828201905092915050565b7f596f7572206d617820746f6b656e20686f6c64696e6720657863656564656400600082015250565b6000612898601f83611f32565b91506128a382612862565b602082019050919050565b600060208201905081810360008301526128c78161288b565b9050919050565b7f4d617820746f6b656e20737570706c7920657863656564656400000000000000600082015250565b6000612904601983611f32565b915061290f826128ce565b602082019050919050565b60006020820190508181036000830152612933816128f7565b9050919050565b600061294582611fe2565b915061295083611fe2565b9250817fffffffffffffffffffffffffffffffffffffffffffffffffffffffffffffffff0483118215151615612989576129886127dd565b5b828202905092915050565b7f496e73756666696369656e742066756e64730000000000000000000000000000600082015250565b60006129ca601283611f32565b91506129d582612994565b602082019050919050565b600060208201905081810360008301526129f9816129bd565b9050919050565b7f546f6b656e20646f6573206e6f74206578697374000000000000000000000000600082015250565b6000612a36601483611f32565b9150612a4182612a00565b602082019050919050565b60006020820190508181036000830152612a6581612a29565b9050919050565b600081905092915050565b6000612a8282611f27565b612a8c8185612a6c565b9350612a9c818560208601611f43565b80840191505092915050565b6000612ab48285612a77565b9150612ac08284612a77565b91508190509392505050565b7f4f776e61626c653a206e6577206f776e657220697320746865207a65726f206160008201527f6464726573730000000000000000000000000000000000000000000000000000602082015250565b6000612b28602683611f32565b9150612b3382612acc565b604082019050919050565b60006020820190508181036000830152612b5781612b1b565b9050919050565b7f4552433732313a207472616e736665722066726f6d20696e636f72726563742060008201527f6f776e6572000000000000000000000000000000000000000000000000000000602082015250565b6000612bba602583611f32565b9150612bc582612b5e565b604082019050919050565b60006020820190508181036000830152612be981612bad565b9050919050565b7f4552433732313a207472616e7366657220746f20746865207a65726f2061646460008201527f7265737300000000000000000000000000000000000000000000000000000000602082015250565b6000612c4c602483611f32565b9150612c5782612bf0565b604082019050919050565b60006020820190508181036000830152612c7b81612c3f565b9050919050565b6000612c8d82611fe2565b9150612c9883611fe2565b925082821015612cab57612caa6127dd565b5b828203905092915050565b7f4f776e61626c653a2063616c6c6572206973206e6f7420746865206f776e6572600082015250565b6000612cec602083611f32565b9150612cf782612cb6565b602082019050919050565b60006020820190508181036000830152612d1b81612cdf565b9050919050565b7f4552433732313a20617070726f766520746f2063616c6c657200000000000000600082015250565b6000612d58601983611f32565b9150612d6382612d22565b602082019050919050565b60006020820190508181036000830152612d8781612d4b565b9050919050565b7f4552433732313a207472616e7366657220746f206e6f6e20455243373231526560008201527f63656976657220696d706c656d656e7465720000000000000000000000000000602082015250565b6000612dea603283611f32565b9150612df582612d8e565b604082019050919050565b60006020820190508181036000830152612e1981612ddd565b9050919050565b6000612e2b82611fe2565b91507fffffffffffffffffffffffffffffffffffffffffffffffffffffffffffffffff821415612e5e57612e5d6127dd565b5b600182019050919050565b7f4e487b7100000000000000000000000000000000000000000000000000000000600052601260045260246000fd5b6000612ea382611fe2565b9150612eae83611fe2565b925082612ebe57612ebd612e69565b5b828204905092915050565b6000612ed482611fe2565b9150612edf83611fe2565b925082612eef57612eee612e69565b5b828206905092915050565b7f4e487b7100000000000000000000000000000000000000000000000000000000600052603260045260246000fd5b600081519050919050565b600082825260208201905092915050565b6000612f5082612f29565b612f5a8185612f34565b9350612f6a818560208601611f43565b612f7381611f76565b840191505092915050565b6000608082019050612f936000830187612077565b612fa06020830186612077565b612fad604083018561210d565b8181036060830152612fbf8184612f45565b905095945050505050565b600081519050612fd981611e98565b92915050565b600060208284031215612ff557612ff4611e62565b5b600061300384828501612fca565b91505092915050565b7f4552433732313a206d696e7420746f20746865207a65726f2061646472657373600082015250565b6000613042602083611f32565b915061304d8261300c565b602082019050919050565b6000602082019050818103600083015261307181613035565b9050919050565b7f4552433732313a20746f6b656e20616c7265616479206d696e74656400000000600082015250565b60006130ae601c83611f32565b91506130b982613078565b602082019050919050565b600060208201905081810360008301526130dd816130a1565b905091905056fea264697066735822122007eb3664cb7f28d042ea03a9dea59671eefba16fb11d3954c1c3379eacc7ebe464736f6c63430008090033",
  "linkReferences": {},
  "deployedLinkReferences": {}
}